:020000040000FA
:08000000803102288731E92F4D
:10085A001E340034623051018D008F019101023043
:10086A009300920108004F0196019701980199019E
:10087A009A019B019C019D0108008C30460192005F
:10088A009101900144011E08F33904389E000800C2
:10089A008C30460196009501940144011E08CF3917
:1008AA0010389E0008008C3046019A009901980180
:1008BA0044011E083F3940389E0008008C3046012A
:1008CA008E008D011E308C0044011E08FC3901384F
:1008DA009E0008006400800101310130FE020030F0
:1008EA00FF3B7F087E0403190034702C8431E9240D
:1008FA0084318531D125843140011317191384318C
:10090A0096248431842C0130450190008F01910195
:10091A009B308D008C014E019010D03045018E0025
:10092A00080040010D1B080085311F2584318531DF
:10093A0001258431F201F301003085313D2508009B
:10094A00FF30F0050330F10546010E1EB12C0630CA
:10095A00F035F10D890BAD2C71088D0070088C00F3
:10096A000800FF30F0050330F1054601121EC22CC3
:10097A000630F035F10D890BBE2C71089100700814
:10098A0090000800FF30F0050330F1054601161EFD
:10099A00D32C0630F035F10D890BCF2C7108950058
:1009AA00700894000800FF30F0050330F105460195
:1009BA001A1EE42C0630F035F10D890BE02C710873
:1009CA0099007008980008008431382484318531F0
:1009DA005C25843184312F24843184316324843129
:1009EA0084314224843184315824843184314D2421
:1009FA00843184318824080000307B0210300319C6
:100A0A007A02031C08007B08F1007A08F00084319E
:100A1A00A52485312730F700F530890B122DF70B05
:100A2A00122D00000130FA020030FB3B853182258D
:100A3A008531012D00307B02463003197A020318F2
:100A4A0008007B08F1007A08F0008431A52485317A
:100A5A002730F700F530890B302DF70B302D0000C9
:100A6A000130FA070030FB3D8531822585311F2D83
:100A7A00F6007608F400F5017408F0007508F10034
:100A8A008431B62485317208F400F5017408F00047
:100A9A007508F1008431C72485317308F400F50123
:100AAA007408F0007508F1008431D8240800400168
:100ABA00980199019A013F309200E0309300F83092
:100ACA009400FF307E01CE00B030C3003730B8004A
:100ADA00C401B901CF01BA01C501D0013730BB0049
:100AEA00F030C600FF30D1000930A0000A30A10062
:100AFA000C309C000B30A200080079084001A100CC
:100B0A007808A000A035A10DA035A10D8E30A20055
:100B1A002730A3002008220786002108233D8700EA
:100B2A000108A4002408F2007908A6007808A500A4
:100B3A00A535A60DA535A60D8D30A7002730A8002E
:100B4A002508270786002608283D87000108A900EE
:100B5A002908F3007908AB007808AA00AA35AB0D7A
:100B6A00AA35AB0D8C30AC002730AD002A082C0713
:100B7A0086002B082D3D8700010885313D258531EA
:100B8A000130F8070030F93D193078067904031D61
:100B9A000800F801F90108008C3086002730870028
:100BAA009B30C03F9030860027308700FF3081009D
:100BBA009430860027308700FF3081009730860006
:100BCA0027308700643081009830860027308700FC
:100BDA00FF3081009B3086002730870096308100E5
:100BEA009C30860027308700FF3081009E308600C7
:100BFA00273087008C3081009D308600273087009F
:100C0A00733081009F30860027308700FF308100D3
:100C1A00A030860027308700FF308100A23086008E
:100C2A00273087008C308100A1308600273087006A
:100C3A00D7308100A330860027308700FF3081003B
:100C4A00A4308600273087005F308100A6308600F6
:100C5A00273087008C308100A53086002730870036
:100C6A00D7308100A730860027308700FF30810007
:100C7A00A83086002730870023308100AA308600FA
:100C8A00273087003C308100A93086002730870052
:100C9A00FF308100AB30860027308700FF308100AB
:100CAA00AC308600273087000A308100AE308600DB
:100CBA00273087008101AD30860027308700FF305A
:100CCA008100AF30860027308700FF308100B030C6
:100CDA008600273087008101B230860027308700DE
:100CEA008101B130860027308700FF308100B330A0
:100CFA00860027308700FF308100B4308600273015
:100D0A0087008101B6308600273087006430810071
:100D1A00B530860027308700FF308100B730860063
:100D2A0027308700FF308100B830860027308700DF
:100D3A008101BA30860027308700FF308100B93040
:100D4A0086002730870096308100BB308600273026
:100D5A008700FF308100BC30860027308700810180
:100D6A00BE30860027308700FF308100BD30860004
:100D7A00273087004B308100BF308600273087003C
:100D8A00FF308100C0308600273087008101C230E1
:100D9A00860027308700FF308100C1308600273067
:100DAA0087001E308100C330860027308700FF305D
:100DBA008100C4308600273087008101C630860052
:100DCA0027308700FF308100C53086002730870032
:100DDA008101C73086002730870096308100C830ED
:100DEA008600273087008101CA30860027308700B5
:100DFA00FF308100C9308600273087008101CB305F
:100E0A008600273087008101CC3086002730870092
:100E1A001E308100CE30860027308700FF308100E7
:100E2A00CD308600273087008101CF3086002730F9
:100E3A0087008101D0308600273087001E3081006C
:100E4A00D230860027308700FF308100D1308600FB
:100E5A00273087008101D3308600273087001E3073
:100E6A008100D43086002730870050308100D63088
:100E7A00860027308700FF308100D5308600273072
:100E8A0087008101D7308600273087008101D8305A
:100E9A0086002730870069308100DA3086002730E3
:100EAA008700FF308100D930860027308700810112
:100EBA00DB308600273087008101D8308600273052
:100ECA00870091308100DA30860027308700FF30B2
:100EDA008100D9308600273087008101DB30860007
:100EEA00273087008101DC30860027308700DC301C
:100EFA008100DE30860027308700FF308100DD3038
:100F0A008600273087008101DF308600273087007E
:100F1A001E308100E030860027308700FF308100D4
:100F2A00E230860027308700FF308100E1308600FA
:100F3A00273087008101E33086002730870081014E
:100F4A00E430860027308700FF308100E6308600D3
:100F5A0027308700A0308100E530860027308700DF
:100F6A008101E7308600273087008101E83086005A
:100F7A0027308700FF308100EA308600273087005B
:100F8A0064308100E9308600273087008101EB3028
:100F9A008600273087008101EC30860027308700E1
:100FAA00FF308100EE308600273087003C30810018
:100FBA00ED308600273087008101EF308600273028
:100FCA00870014308100080084312D248731FA000B
:100FDA0084312E248731FB008C3084002730850031
:100FEA006430FE000030FF0084316F24F801F901FB
:060FFA00400184317B2C54
:020000040001F9
:0A000E00EC3FFF3F9F3FFF3FFF3F25
:00000001FF
